S0170000436F756E74657244656D6F436F64652E737265632D
S11300000C942A000C9434000C9434000C943400A6
S11300100C9434000C9434000C9434000C9434008C
S11300200C9434000C9434000C9434000C9434007C
S11300300C9434000C9434000C9434000C9434006C
S11300400C9434000C9434000C9434000C9434005C
S11300500C94340011241FBECFE5D8E0DEBFCDBF21
S11300600E9436000C944B000C9400001ABA8FE0E6
S113007081BB80E0C89BFECF8F5F803109F480E0B4
S113008082BB2FE33DE093E0215030409040E1F704
S10D009000C00000EFCFF894FFCF8A
S9030000FC
