S01700004763634170706C69636174696F6E322E737265635A
S11300000C942A000C9434000C9434000C943400A6
S11300100C9434000C9434000C9434000C9434008C
S11300200C9434000C9434000C9434000C9434007C
S11300300C9434000C9434000C9434000C9434006C
S11300400C9434000C9434000C9434000C9434005C
S11300500C94340011241FBECFE5D8E0DEBFCDBF21
S11300600E9436000C9496000C940000CF93DF930A
S113007000D000D000D0CDB7DEB71ABA17BA88EFD7
S113008081BB8FEF84BBFE01319686E0DF011D92B8
S11300908A95E9F780E030E040E060E029B3207819
S11300A0332369F0882359F0211109C0442339F01E
S11300B0E1E0F0E0EC0FFD1FE40FF11D608389B374
S11300C08770E9B3E873F0E096B3692F6F7096B365
S11300D0492F42954F7039B33074A1E0B0E0AC0FB2
S11300E0BD1FA80FB11D5C91F695E795F695E795B0
S11300F0F695E79581E090E08C0F9D1FE80FF91FBE
S11301009081A0E19A9FC0011124852B85BB80B307
S11301108770E1E0F0E0EC0FFD1FE80FF11D808136
S1130120880F880F880F82BB822FB8CFF894FFCF37
S9030000FC
