:100000000C942A000C943C000C943C000C943C0092
:100010000C943C000C943C000C943C000C943C0070
:100020000C943C000C943C000C943C000C943C0060
:100030000C943C000C943C000C943C000C943C0050
:100040000C943C000C943C000C943C000C943C0040
:100050000C943C0011241FBECFE5D8E0DEBFCDBF1D
:1000600022E0A0E6B0E001C01D92A236B207E1F79F
:100070000E943E000C9460000C94000017BA8FEFB1
:1000800081BB8ABB84BBE1E6F0E08FEA9FE091830D
:10009000808381EA90EF9383828386B380936000AC
:1000A0008F5F8093610282BBE0916000F0E0EE0F11
:1000B000FF1FEF59FF4F908181819BBB85BBEDCF27
:0400C000F894FFCFE2
:00000001FF
