:100000000C942A000C943C000C943C000C943C0092
:100010000C943C000C943C000C943C000C943C0070
:100020000C943C000C943C000C943C000C943C0060
:100030000C943C000C943C000C943C000C943C0050
:100040000C943C000C943C000C943C000C943C0040
:100050000C943C0011241FBECFE5D8E0DEBFCDBF1D
:1000600020E0A0E6B0E001C01D92A038B207E1F7A1
:100070000E943E000C947A000C9400001ABA88EF9B
:1000800087BB60E070E090E026B336B3911107C003
:10009000B09B05C096B3917061E070E008C09130EC
:1000A00031F4B09904C096B3917060E070E0E9B3A8
:1000B000E295EF7089B3482F4F7083FF04C061153C
:1000C000710509F0406F21FF08C06115710529F025
:1000D000F0E0E05AFF4F4083D7CF32FFD5CF611514
:1000E000710591F2F0E0E05AFF4F80818295807FA8
:0800F00088BBCACFF894FFCFD2
:00000001FF
