S01600004353453331365F50726F6A6563742E7372656363
S11300000C942A000C9440040C9447000C94470070
S11300100C9447000C9447000C9447000C94470040
S11300200C9447000C9447000C9447000C94470030
S11300300C9447000C9447000C9447000C94470020
S11300400C9447000C9447000C9447000C94470010
S11300500C94470011241FBECFE5D8E0DEBFCDBF0E
S113006010E0A0E6B0E0EAE7FAE002C005900D92E5
S1130070AA36B107D9F721E0AAE6B0E001C01D9283
S1130080A534B207E1F70E94AA040C943B050C9432
S1130090000020E030E016C0F901EE0FFF1FC90197
S11300A0880F991F880F991F880F991FE80FF91F50
S11300B0EF51FF4F11821082138212821186108633
S11300C02F5F3F4F2A3031053CF3089580E090E0E4
S11300D011C0FC01EE0FFF1FEE0FFF1FEF55FF4F86
S11300E0208131814281FC01E659FF4F40833087F2
S11300F0208B01968830910564F380E090E012C073
S1130100FC013896EE0FFF1FEE0FFF1FEF55FF4F58
S1130110208131814281FC01E659FF4F408F30A399
S113012020A70196883091055CF3089580916800BA
S113013090916900FC013197EE0FFF1FEE0FFF1F36
S1130140EF55FF4F40815181628173816F7777272B
S11301504083518362837383FC01EE0FFF1FEE0F14
S1130160FF1FEF55FF4F40815181628173816F738F
S113017077274083518362837383FC013196EE0FAA
S1130180FF1FEE0FFF1FEF55FF4F80819181A2816A
S1130190B381AF77BB2780839183A283B383089510
S11301A08091680090916900FC013197EE0FFF1F68
S11301B0EE0FFF1FEF55FF4F408151816281738124
S11301C060684083518362837383FC01EE0FFF1FD9
S11301D0EE0FFF1FEF55FF4F408151816281738104
S11301E0606C4083518362837383FC013196EE0F0C
S11301F0FF1FEE0FFF1FEF55FF4F80819181A281FA
S1130200B381A06880839183A283B383089580918E
S1130210640090916500FC013197EE0FFF1FEE0F13
S1130220FF1FEF55FF4F40815181628173814C7FE5
S113023077274083518362837383FC01EE0FFF1F92
S1130240EE0FFF1FEF55FF4F408151816281738193
S11302504E7F77274083518362837383FC013196F9
S1130260EE0FFF1FEE0FFF1FEF55FF4F80819181AF
S1130270A281B3818C7FBB2780839183A283B383C4
S113028008958091640090916500FC013197EE0F10
S1130290FF1FEE0FFF1FEF55FF4F40815181628119
S11302A0738143604083518362837383FC01EE0F47
S11302B0FF1FEE0FFF1FEF55FF4F408151816281F9
S11302C0738141604083518362837383FC0131965F
S11302D0EE0FFF1FEE0FFF1FEF55FF4F808191813F
S11302E0A281B381836080839183A283B3830895C1
S11302F00E9407018091640090916500813091050E
S113030029F4109263001092620009C08C309105A8
S113031031F421E030E030936300209362002091B7
S1130320620030916300232B31F0019790936500B4
S11303308093640005C001969093650080936400E7
S11303400E94410108958F929F92AF92BF92CF92E3
S1130350DF92EF92FF9280E090E07FC19C01220F38
S1130360331F220F331F220F331FFC01EE0FFF1F19
S1130370E20FF31FEF51FF4F20813181232B09F44A
S113038002C19C01220F331F220F331F220F331F80
S1130390FC01EE0FFF1FE20FF31FEF51FF4FA4818B
S11303A0B5819D01215031093583248321303105E4
S11303B0B9F4AC01440F551F440F551F440F551F8A
S11303C0FC01EE0FFF1FE40FF51FEF51FF4F668195
S11303D0778140916800509169006417750711F1A5
S11303E02115310509F040C0AC01440F551F440FDD
S11303F0551F440F551FFC01EE0FFF1FE40FF51F9F
S1130400EF51FF4F668177814091680050916900F8
S1130410FA0131976E177F0729F04F5F5F4F64171A
S1130420750711F5AC01440F551F440F551F440FB8
S1130430551FFC01EE0FFF1FE40FF51FEF51FF4F97
S113044041E050E053834283409160005091610049
S1130450495151095093610040936000452B21F4A8
S11304601092670010926600332394F0AC01440F9D
S1130470551F440F551F440F551FFC01EE0FFF1F5E
S1130480E40FF51FEF51FF4F42815381452BD9F102
S11304909C01220F331F220F331F220F331FFC0135
S11304A0EE0FFF1FE20FF31FEF51FF4F1182108277
S11304B01382128225E030E03187208740E050E04B
S11304C060EC70E004C07595679557954795AA95BB
S11304D0D2F740955095609570950680F781E02D90
S11304E0EE0FFF1FEE0FFF1FEF55FF4FC080D180AF
S11304F0E280F3804C215D216E217F214083518372
S113050062837383A9C040E050E060EC70E06A014C
S11305107B0104C0F594E794D794C794AA95D2F7C5
S1130520C094D094E094F094FC01EE0FFF1FEE0F02
S1130530FF1FEE0FFF1FDC01AA0FBB1FEA0FFB1FFB
S1130540EF51FF4F0680F781E02DEE0FFF1FEE0FF6
S1130550FF1FEF55FF4F80809180A280B380C82099
S1130560D920EA20FB2004C07595679557954795D7
S11305702A95D2F74C295D296E297F29408351831E
S11305806283738369C09C01220F331F220F331FC0
S1130590220F331FFC01EE0FFF1FE20FF31FEF5179
S11305A0FF4F208531852115310509F043C0209185
S11305B09C0030919D002115310539F021503109FD
S11305C030939D0020939C0047C09C01220F331F51
S11305D0220F331F220F331FFC01EE0FFF1FE20F08
S11305E0F31FEF51FF4F25E130E035832483209141
S11305F06400309165003783268341E050E05183E5
S1130600408311861086F901EE0FFF1FEE0FFF1FC6
S1130610EF55FF4F40815181628173814660408371
S113062051836283738323E030E030939D002093F1
S11306309C0012C0AC01440F551F440F551F440FBA
S1130640551FFC01EE0FFF1FE40FF51FEF51FF4F85
S113065021503109318720870196853091050CF4AA
S11306607DCEFF90EF90DF90CF90BF90AF909F90A2
S11306708F900895CF92DF92EF92FF920F931F9382
S11306808091A000882309F449C020919E003091F4
S11306909F002F5F3F4F30939F0020939E00232B9A
S11306A0E9F1282F30E02150310940E050E060ECBE
S11306B070E06A017B0104C0F594E794D794C79471
S11306C02A95D2F7970186010095109520953095CB
S11306D0E0916800F0916900EE0FFF1FEE0FFF1F1D
S11306E0EF55FF4FC080D180E280F3800C211D21A3
S11306F02E213F218F5F8093A00090E0019704C0DA
S113070075956795579547958A95D2F7402B512B48
S1130710622B732B40835183628373831F910F91E8
S1130720FF90EF90DF90CF9008958091A000811109
S113073016C0E0916800F0916900EE0FFF1FEE0F04
S1130740FF1FEF55FF4F80819181A281B381A86182
S113075080839183A283B38384E08093A00008956F
S1130760CF93DF93EC010E949600C130D105A1F430
S11307708BB380618BBB8091680090916900019775
S11307809093690080936800029734F481E090E0CC
S11307909093690080936800CD2BA1F48BB388609B
S11307A08BBB8091680090916900019690936900D9
S11307B0809368000C9734F08CE090E0909369008B
S11307C080936800DF91CF91089580919A00909171
S11307D09B008630910561F44DE450E36CE171E0D7
S11307E04093DD005093DE006093DF007093E000DF
S11307F08C30910561F44DE453E36CE171E0409376
S1130800DD005093DE006093DF007093E0008231DE
S1130810910561F44DE456E36CE171E04093DD0031
S11308205093DE006093DF007093E000489781F4FA
S11308308DE495E3ACE1B1E08093DD009093DE00BC
S1130840A093DF00B093E00010929B0010929A00F6
S1130850E1EAF0E084AD95ADA6ADB7AD880F991F80
S1130860AA1FBB1F84AF95AFA6AFB7AF80919A0004
S113087090919B00019690939B0080939A00089519
S11308801F920F920FB60F9211242F933F934F9301
S11308905F936F937F938F939F93AF93BF93EF93E4
S11308A0FF930E9495033EC00E943A030E94660093
S11308B040E050E034C04115510531F4009721F473
S11308C02BB32E7F2BBB03C02BB321602BBB2BB3CD
S11308D022602BBB2BB32D7F2BBB2BB324602BBBF4
S11308E02BB32B7F2BBBFA01EE0FFF1FEE0FFF1F65
S11308F0EE0FFF1FE659FF4FE80FF91F208128BBB9
S1130900E9EFF0E03197F1F700C00000019602C072
S113091080E090E08830910574F24F5F5F4F46307D
S11309205105B4F38091A000893108F4BDCF109231
S1130930A000FF91EF91BF91AF919F918F917F9113
S11309406F915F914F913F912F910F900FBE0F9038
S11309501F9018958FEF84BB8ABB87BB11BA81E0C7
S11309608BBB85E59CE1A0E0B0E08093DD00909333
S1130970DE00A093DF00B093E00080E48BBF85B776
S1130980826085BF85B78E7F85BF789480E090E0D4
S113099013C02BB322602BBB2BB32D7F2BBB2BB3EC
S11309A024602BBB2BB32B7F2BBBE9EFF0E03197FB
S11309B0F1F700C0000001968033910554F30E94C2
S11309C049008091660090916700892B19F00E947C
S11309D0D00002C00E9496000E94E503809B04C0E0
S11309E081E090E00E94B003819B04C080E090E02D
S11309F00E94B0030E9478010E94A3010E94660035
S1130A0040E050E034C04115510531F4009721F421
S1130A102BB32E7F2BBB03C02BB321602BBB2BB37B
S1130A2022602BBB2BB32D7F2BBB2BB324602BBBA2
S1130A302BB32B7F2BBBFA01EE0FFF1FEE0FFF1F13
S1130A40EE0FFF1FE659FF4FE80FF91F208128BB67
S1130A50E9EFF0E03197F1F700C00000019602C021
S1130A6080E090E08830910574F24F5F5F4F46302C
S10D0A705105B4F3A6CFF894FFCFAC
S10D0A7A6400010005000100010002
S9030000FC
