S01700004763634170706C69636174696F6E332E7372656359
S11300000C942A000C943C000C943C000C943C008E
S11300100C943C000C943C000C943C000C943C006C
S11300200C943C000C943C000C943C000C943C005C
S11300300C943C000C943C000C943C000C943C004C
S11300400C943C000C943C000C943C000C943C003C
S11300500C943C0011241FBECFE5D8E0DEBFCDBF19
S113006020E0A0E6B0E001C01D92A238B207E1F79B
S11300700E943E000C9493000C94000017BA8FEF7A
S113008081BB8ABB84BBE1E6F0E081E096E091832A
S113009080838AE092E09383828381E190E0958378
S11300A0848388E092E09783868381E290E091875D
S11300B0808782E096E09387828788E890E095873E
S11300C084878EE092E09787868783E096E0918B21
S11300D0808B8BE092E0938B828B88E493E0958B0A
S11300E0848B80E096E0978B868B8DE092E0918FF5
S11300F0808F89E092E0938F828F80E098E0958FE3
S1130100848F84E096E0978F868FE6B3EF70E09358
S11301106000F0E0EE0FFF1FEF59FF4F90818181E7
S10D01209BBB82BBF2CFF894FFCF23
S9030000FC
