S0100000414C55204D4950532E73726563D9
S11300000C942A000C9434000C9434000C943400A6
S11300100C9434000C9434000C9434000C9434008C
S11300200C9434000C9434000C9434000C9434007C
S11300300C9434000C9434000C9434000C9434006C
S11300400C9434000C9434000C9434000C9434005C
S11300500C94340011241FBECFE5D8E0DEBFCDBF21
S11300600E9436000C9471000C94000011BA8FEFBA
S11300708ABB17BA84BB90B3977086B38F7026B3CC
S1130080422F42954F70911102C0840F24C09130C9
S113009011F4841B20C0933011F484231CC09230CB
S11300A011F4842B18C0943019F4842B809513C058
S11300B0953029F401C0880F4A95EAF70CC09630B0
S11300C049F4282F30E0C90102C0959587954A95D7
S11300D0E2F701C080E08BBB91E0811190E095BB19
S10900E0CACFF894FFCF23
S9030000FC
